{
  "contractName": "LiquidityPool",
  "abi": [
    {
      "inputs": [
        {
          "internalType": "address",
          "name": "_tokenA",
          "type": "address"
        },
        {
          "internalType": "address",
          "name": "_tokenB",
          "type": "address"
        }
      ],
      "stateMutability": "nonpayable",
      "type": "constructor"
    },
    {
      "inputs": [
        {
          "internalType": "address",
          "name": "target",
          "type": "address"
        }
      ],
      "name": "AddressEmptyCode",
      "type": "error"
    },
    {
      "inputs": [
        {
          "internalType": "address",
          "name": "account",
          "type": "address"
        }
      ],
      "name": "AddressInsufficientBalance",
      "type": "error"
    },
    {
      "inputs": [],
      "name": "FailedInnerCall",
      "type": "error"
    },
    {
      "inputs": [
        {
          "internalType": "address",
          "name": "token",
          "type": "address"
        }
      ],
      "name": "SafeERC20FailedOperation",
      "type": "error"
    },
    {
      "inputs": [],
      "name": "lpToken",
      "outputs": [
        {
          "internalType": "contract LPToken",
          "name": "",
          "type": "address"
        }
      ],
      "stateMutability": "view",
      "type": "function"
    },
    {
      "inputs": [],
      "name": "reserveA",
      "outputs": [
        {
          "internalType": "uint256",
          "name": "",
          "type": "uint256"
        }
      ],
      "stateMutability": "view",
      "type": "function"
    },
    {
      "inputs": [],
      "name": "reserveB",
      "outputs": [
        {
          "internalType": "uint256",
          "name": "",
          "type": "uint256"
        }
      ],
      "stateMutability": "view",
      "type": "function"
    },
    {
      "inputs": [],
      "name": "tokenA",
      "outputs": [
        {
          "internalType": "contract IERC20",
          "name": "",
          "type": "address"
        }
      ],
      "stateMutability": "view",
      "type": "function"
    },
    {
      "inputs": [],
      "name": "tokenB",
      "outputs": [
        {
          "internalType": "contract IERC20",
          "name": "",
          "type": "address"
        }
      ],
      "stateMutability": "view",
      "type": "function"
    },
    {
      "inputs": [
        {
          "internalType": "uint256",
          "name": "amountA",
          "type": "uint256"
        },
        {
          "internalType": "uint256",
          "name": "amountB",
          "type": "uint256"
        }
      ],
      "name": "addLiquidity",
      "outputs": [],
      "stateMutability": "nonpayable",
      "type": "function"
    },
    {
      "inputs": [
        {
          "internalType": "uint256",
          "name": "lpAmount",
          "type": "uint256"
        }
      ],
      "name": "removeLiquidity",
      "outputs": [],
      "stateMutability": "nonpayable",
      "type": "function"
    },
    {
      "inputs": [],
      "name": "getPrice",
      "outputs": [
        {
          "internalType": "uint256",
          "name": "",
          "type": "uint256"
        }
      ],
      "stateMutability": "view",
      "type": "function"
    },
    {
      "inputs": [
        {
          "internalType": "address",
          "name": "tokenIn",
          "type": "address"
        },
        {
          "internalType": "uint256",
          "name": "amountIn",
          "type": "uint256"
        }
      ],
      "name": "swap",
      "outputs": [],
      "stateMutability": "nonpayable",
      "type": "function"
    },
    {
      "inputs": [
        {
          "internalType": "uint256",
          "name": "amountIn",
          "type": "uint256"
        },
        {
          "internalType": "uint256",
          "name": "reserveIn",
          "type": "uint256"
        },
        {
          "internalType": "uint256",
          "name": "reserveOut",
          "type": "uint256"
        }
      ],
      "name": "getAmountOut",
      "outputs": [
        {
          "internalType": "uint256",
          "name": "",
          "type": "uint256"
        }
      ],
      "stateMutability": "pure",
      "type": "function"
    },
    {
      "inputs": [
        {
          "internalType": "uint256",
          "name": "amountOut",
          "type": "uint256"
        },
        {
          "internalType": "uint256",
          "name": "reserveIn",
          "type": "uint256"
        },
        {
          "internalType": "uint256",
          "name": "reserveOut",
          "type": "uint256"
        }
      ],
      "name": "getAmountIn",
      "outputs": [
        {
          "internalType": "uint256",
          "name": "",
          "type": "uint256"
        }
      ],
      "stateMutability": "pure",
      "type": "function"
    },
    {
      "inputs": [],
      "name": "getReserves",
      "outputs": [
        {
          "internalType": "uint256",
          "name": "",
          "type": "uint256"
        },
        {
          "internalType": "uint256",
          "name": "",
          "type": "uint256"
        }
      ],
      "stateMutability": "view",
      "type": "function"
    }
  ],
  "bytecode": "0x608060405234801562000010575f80fd5b50604051620039aa380380620039aa8339818101604052810190620000369190620001a3565b815f806101000a81548173ffffffffffffffffffffffffffffffffffffffff021916908373ffffffffffffffffffffffffffffffffffffffff1602179055508060015f6101000a81548173ffffffffffffffffffffffffffffffffffffffff021916908373ffffffffffffffffffffffffffffffffffffffff160217905550604051620000c39062000130565b620000ce9062000294565b604051809103905ff080158015620000e8573d5f803e3d5ffd5b5060025f6101000a81548173ffffffffffffffffffffffffffffffffffffffff021916908373ffffffffffffffffffffffffffffffffffffffff1602179055505050620002c9565b61193f806200206b83390190565b5f80fd5b5f73ffffffffffffffffffffffffffffffffffffffff82169050919050565b5f6200016d8262000142565b9050919050565b6200017f8162000161565b81146200018a575f80fd5b50565b5f815190506200019d8162000174565b92915050565b5f8060408385031215620001bc57620001bb6200013e565b5b5f620001cb858286016200018d565b9250506020620001de858286016200018d565b9150509250929050565b5f82825260208201905092915050565b7f4c697175696469747920506f6f6c20546f6b656e0000000000000000000000005f82015250565b5f6200022e601483620001e8565b91506200023b82620001f8565b602082019050919050565b7f4c505400000000000000000000000000000000000000000000000000000000005f82015250565b5f6200027c600383620001e8565b9150620002898262000246565b602082019050919050565b5f6040820190508181035f830152620002ad8162000220565b90508181036020830152620002c2816200026e565b9050919050565b611d9480620002d75f395ff3fe608060405234801561000f575f80fd5b50600436106100b2575f3560e01c806385f8c2591161006f57806385f8c2591461017d57806398d5fdca146101ad5780639c8f9f23146101cb5780639cd441da146101e7578063d004f0f714610203578063dc5fa6c51461021f576100b2565b8063054d50d4146100b65780630902f1ac146100e65780630fc63d101461010557806319e36f3b146101235780635f64b55b146101415780635fcbd2851461015f575b5f80fd5b6100d060048036038101906100cb91906114c5565b61023d565b6040516100dd9190611524565b60405180910390f35b6100ee610321565b6040516100fc92919061153d565b60405180910390f35b61010d610331565b60405161011a91906115de565b60405180910390f35b61012b610354565b6040516101389190611524565b60405180910390f35b61014961035a565b60405161015691906115de565b60405180910390f35b61016761037f565b6040516101749190611617565b60405180910390f35b610197600480360381019061019291906114c5565b6103a4565b6040516101a49190611524565b60405180910390f35b6101b561048f565b6040516101c29190611524565b60405180910390f35b6101e560048036038101906101e09190611630565b610509565b005b61020160048036038101906101fc919061165b565b6108c2565b005b61021d600480360381019061021891906116d4565b610ca7565b005b6102276110b4565b6040516102349190611524565b60405180910390f35b5f808411610280576040517f08c379a00000000000000000000000000000000000000000000000000000000081526004016102779061176c565b60405180910390fd5b5f8311801561028e57505f82115b6102cd576040517f08c379a00000000000000000000000000000000000000000000000000000000081526004016102c4906117d4565b60405180910390fd5b5f6103e5856102dc919061181f565b90505f83826102eb919061181f565b90505f826103e8876102fd919061181f565b6103079190611860565b9050808261031591906118c0565b93505050509392505050565b5f80600354600454915091509091565b5f8054906101000a900473ffffffffffffffffffffffffffffffffffffffff1681565b60045481565b60015f9054906101000a900473ffffffffffffffffffffffffffffffffffffffff1681565b60025f9054906101000a900473ffffffffffffffffffffffffffffffffffffffff1681565b5f8084116103e7576040517f08c379a00000000000000000000000000000000000000000000000000000000081526004016103de9061193a565b60405180910390fd5b5f831180156103f557505f82115b610434576040517f08c379a000000000000000000000000000000000000000000000000000000000815260040161042b906117d4565b60405180910390fd5b5f6103e88585610444919061181f565b61044e919061181f565b90505f6103e586856104609190611958565b61046a919061181f565b90506001818361047a91906118c0565b6104849190611860565b925050509392505050565b5f806003541180156104a257505f600454115b6104e1576040517f08c379a00000000000000000000000000000000000000000000000000000000081526004016104d8906117d4565b60405180910390fd5b600354670de0b6b3a76400006004546104fa919061181f565b61050491906118c0565b905090565b5f811161054b576040517f08c379a0000000000000000000000000000000000000000000000000000000008152600401610542906119d5565b60405180910390fd5b5f60025f9054906101000a900473ffffffffffffffffffffffffffffffffffffffff1673ffffffffffffffffffffffffffffffffffffffff166318160ddd6040518163ffffffff1660e01b8152600401602060405180830381865afa1580156105b6573d5f803e3d5ffd5b505050506040513d601f19601f820116820180604052508101906105da9190611a07565b90505f81600354846105ec919061181f565b6105f691906118c0565b90505f8260045485610608919061181f565b61061291906118c0565b90505f8211801561062257505f81115b610661576040517f08c379a000000000000000000000000000000000000000000000000000000000815260040161065890611a7c565b60405180910390fd5b60025f9054906101000a900473ffffffffffffffffffffffffffffffffffffffff1673ffffffffffffffffffffffffffffffffffffffff16639dc29fac33866040518363ffffffff1660e01b81526004016106bd929190611aa9565b5f604051808303815f87803b1580156106d4575f80fd5b505af11580156106e6573d5f803e3d5ffd5b5050505061073433835f8054906101000a900473ffffffffffffffffffffffffffffffffffffffff1673ffffffffffffffffffffffffffffffffffffffff166110ba9092919063ffffffff16565b610780338260015f9054906101000a900473ffffffffffffffffffffffffffffffffffffffff1673ffffffffffffffffffffffffffffffffffffffff166110ba9092919063ffffffff16565b5f8054906101000a900473ffffffffffffffffffffffffffffffffffffffff1673ffffffffffffffffffffffffffffffffffffffff166370a08231306040518263ffffffff1660e01b81526004016107d89190611ad0565b602060405180830381865afa1580156107f3573d5f803e3d5ffd5b505050506040513d601f19601f820116820180604052508101906108179190611a07565b60038190555060015f9054906101000a900473ffffffffffffffffffffffffffffffffffffffff1673ffffffffffffffffffffffffffffffffffffffff166370a08231306040518263ffffffff1660e01b81526004016108779190611ad0565b602060405180830381865afa158015610892573d5f803e3d5ffd5b505050506040513d601f19601f820116820180604052508101906108b69190611a07565b60048190555050505050565b5f821180156108d057505f81115b61090f576040517f08c379a000000000000000000000000000000000000000000000000000000000815260040161090690611b59565b60405180910390fd5b5f60025f9054906101000a900473ffffffffffffffffffffffffffffffffffffffff1673ffffffffffffffffffffffffffffffffffffffff166318160ddd6040518163ffffffff1660e01b8152600401602060405180830381865afa15801561097a573d5f803e3d5ffd5b505050506040513d601f19601f8201168201806040525081019061099e9190611a07565b90505f8082036109c3576109bc83856109b7919061181f565b611139565b9050610a00565b6109fd60035483866109d5919061181f565b6109df91906118c0565b60045484866109ee919061181f565b6109f891906118c0565b6111b0565b90505b5f8111610a42576040517f08c379a0000000000000000000000000000000000000000000000000000000008152600401610a3990611bc1565b60405180910390fd5b610a8e3330865f8054906101000a900473ffffffffffffffffffffffffffffffffffffffff1673ffffffffffffffffffffffffffffffffffffffff166111c8909392919063ffffffff16565b610adc33308560015f9054906101000a900473ffffffffffffffffffffffffffffffffffffffff1673ffffffffffffffffffffffffffffffffffffffff166111c8909392919063ffffffff16565b60025f9054906101000a900473ffffffffffffffffffffffffffffffffffffffff1673ffffffffffffffffffffffffffffffffffffffff166340c10f1933836040518363ffffffff1660e01b8152600401610b38929190611aa9565b5f604051808303815f87803b158015610b4f575f80fd5b505af1158015610b61573d5f803e3d5ffd5b505050505f8054906101000a900473ffffffffffffffffffffffffffffffffffffffff1673ffffffffffffffffffffffffffffffffffffffff166370a08231306040518263ffffffff1660e01b8152600401610bbd9190611ad0565b602060405180830381865afa158015610bd8573d5f803e3d5ffd5b505050506040513d601f19601f82011682018060405250810190610bfc9190611a07565b60038190555060015f9054906101000a900473ffffffffffffffffffffffffffffffffffffffff1673ffffffffffffffffffffffffffffffffffffffff166370a08231306040518263ffffffff1660e01b8152600401610c5c9190611ad0565b602060405180830381865afa158015610c77573d5f803e3d5ffd5b505050506040513d601f19601f82011682018060405250810190610c9b9190611a07565b60048190555050505050565b5f8054906101000a900473ffffffffffffffffffffffffffffffffffffffff1673ffffffffffffffffffffffffffffffffffffffff168273ffffffffffffffffffffffffffffffffffffffff161480610d4c575060015f9054906101000a900473ffffffffffffffffffffffffffffffffffffffff1673ffffffffffffffffffffffffffffffffffffffff168273ffffffffffffffffffffffffffffffffffffffff16145b610d8b576040517f08c379a0000000000000000000000000000000000000000000000000000000008152600401610d8290611c29565b60405180910390fd5b5f8111610dcd576040517f08c379a0000000000000000000000000000000000000000000000000000000008152600401610dc4906119d5565b60405180910390fd5b5f805f9054906101000a900473ffffffffffffffffffffffffffffffffffffffff1673ffffffffffffffffffffffffffffffffffffffff168373ffffffffffffffffffffffffffffffffffffffff161490505f805f8084610e755760015f9054906101000a900473ffffffffffffffffffffffffffffffffffffffff165f8054906101000a900473ffffffffffffffffffffffffffffffffffffffff16600454600354610ebe565b5f8054906101000a900473ffffffffffffffffffffffffffffffffffffffff1660015f9054906101000a900473ffffffffffffffffffffffffffffffffffffffff166003546004545b9350935093509350610ef33330888773ffffffffffffffffffffffffffffffffffffffff166111c8909392919063ffffffff16565b5f610eff87848461023d565b90505f8111610f43576040517f08c379a0000000000000000000000000000000000000000000000000000000008152600401610f3a9061193a565b60405180910390fd5b610f6e33828673ffffffffffffffffffffffffffffffffffffffff166110ba9092919063ffffffff16565b5f8054906101000a900473ffffffffffffffffffffffffffffffffffffffff1673ffffffffffffffffffffffffffffffffffffffff166370a08231306040518263ffffffff1660e01b8152600401610fc69190611ad0565b602060405180830381865afa158015610fe1573d5f803e3d5ffd5b505050506040513d601f19601f820116820180604052508101906110059190611a07565b60038190555060015f9054906101000a900473ffffffffffffffffffffffffffffffffffffffff1673ffffffffffffffffffffffffffffffffffffffff166370a08231306040518263ffffffff1660e01b81526004016110659190611ad0565b602060405180830381865afa158015611080573d5f803e3d5ffd5b505050506040513d601f19601f820116820180604052508101906110a49190611a07565b6004819055505050505050505050565b60035481565b611134838473ffffffffffffffffffffffffffffffffffffffff1663a9059cbb85856040516024016110ed929190611aa9565b604051602081830303815290604052915060e01b6020820180517bffffffffffffffffffffffffffffffffffffffffffffffffffffffff838183161783525050505061124a565b505050565b5f600382111561119e578190505f600160028461115691906118c0565b6111609190611860565b90505b8181101561119857809150600281828561117d91906118c0565b6111879190611860565b61119191906118c0565b9050611163565b506111ab565b5f82146111aa57600190505b5b919050565b5f8183106111be57816111c0565b825b905092915050565b611244848573ffffffffffffffffffffffffffffffffffffffff166323b872dd8686866040516024016111fd93929190611c47565b604051602081830303815290604052915060e01b6020820180517bffffffffffffffffffffffffffffffffffffffffffffffffffffffff838183161783525050505061124a565b50505050565b5f611274828473ffffffffffffffffffffffffffffffffffffffff166112df90919063ffffffff16565b90505f8151141580156112985750808060200190518101906112969190611cb1565b155b156112da57826040517f5274afe70000000000000000000000000000000000000000000000000000000081526004016112d19190611ad0565b60405180910390fd5b505050565b60606112ec83835f6112f4565b905092915050565b60608147101561133b57306040517fcd7860590000000000000000000000000000000000000000000000000000000081526004016113329190611ad0565b60405180910390fd5b5f808573ffffffffffffffffffffffffffffffffffffffff1684866040516113639190611d48565b5f6040518083038185875af1925050503d805f811461139d576040519150601f19603f3d011682016040523d82523d5f602084013e6113a2565b606091505b50915091506113b28683836113bd565b925050509392505050565b6060826113d2576113cd8261144a565b611442565b5f82511480156113f857505f8473ffffffffffffffffffffffffffffffffffffffff163b145b1561143a57836040517f9996b3150000000000000000000000000000000000000000000000000000000081526004016114319190611ad0565b60405180910390fd5b819050611443565b5b9392505050565b5f8151111561145c5780518082602001fd5b6040517f1425ea4200000000000000000000000000000000000000000000000000000000815260040160405180910390fd5b5f80fd5b5f819050919050565b6114a481611492565b81146114ae575f80fd5b50565b5f813590506114bf8161149b565b92915050565b5f805f606084860312156114dc576114db61148e565b5b5f6114e9868287016114b1565b93505060206114fa868287016114b1565b925050604061150b868287016114b1565b9150509250925092565b61151e81611492565b82525050565b5f6020820190506115375f830184611515565b92915050565b5f6040820190506115505f830185611515565b61155d6020830184611515565b9392505050565b5f73ffffffffffffffffffffffffffffffffffffffff82169050919050565b5f819050919050565b5f6115a66115a161159c84611564565b611583565b611564565b9050919050565b5f6115b78261158c565b9050919050565b5f6115c8826115ad565b9050919050565b6115d8816115be565b82525050565b5f6020820190506115f15f8301846115cf565b92915050565b5f611601826115ad565b9050919050565b611611816115f7565b82525050565b5f60208201905061162a5f830184611608565b92915050565b5f602082840312156116455761164461148e565b5b5f611652848285016114b1565b91505092915050565b5f80604083850312156116715761167061148e565b5b5f61167e858286016114b1565b925050602061168f858286016114b1565b9150509250929050565b5f6116a382611564565b9050919050565b6116b381611699565b81146116bd575f80fd5b50565b5f813590506116ce816116aa565b92915050565b5f80604083850312156116ea576116e961148e565b5b5f6116f7858286016116c0565b9250506020611708858286016114b1565b9150509250929050565b5f82825260208201905092915050565b7f496e73756666696369656e7420696e70757420616d6f756e74000000000000005f82015250565b5f611756601983611712565b915061176182611722565b602082019050919050565b5f6020820190508181035f8301526117838161174a565b9050919050565b7f496e73756666696369656e74206c6971756964697479000000000000000000005f82015250565b5f6117be601683611712565b91506117c98261178a565b602082019050919050565b5f6020820190508181035f8301526117eb816117b2565b9050919050565b7f4e487b71000000000000000000000000000000000000000000000000000000005f52601160045260245ffd5b5f61182982611492565b915061183483611492565b925082820261184281611492565b91508282048414831517611859576118586117f2565b5b5092915050565b5f61186a82611492565b915061187583611492565b925082820190508082111561188d5761188c6117f2565b5b92915050565b7f4e487b71000000000000000000000000000000000000000000000000000000005f52601260045260245ffd5b5f6118ca82611492565b91506118d583611492565b9250826118e5576118e4611893565b5b828204905092915050565b7f496e73756666696369656e74206f757470757420616d6f756e740000000000005f82015250565b5f611924601a83611712565b915061192f826118f0565b602082019050919050565b5f6020820190508181035f83015261195181611918565b9050919050565b5f61196282611492565b915061196d83611492565b9250828203905081811115611985576119846117f2565b5b92915050565b7f416d6f756e74206d7573742062652067726561746572207468616e207a65726f5f82015250565b5f6119bf602083611712565b91506119ca8261198b565b602082019050919050565b5f6020820190508181035f8301526119ec816119b3565b9050919050565b5f81519050611a018161149b565b92915050565b5f60208284031215611a1c57611a1b61148e565b5b5f611a29848285016119f3565b91505092915050565b7f496e73756666696369656e74206c6971756964697479206275726e65640000005f82015250565b5f611a66601d83611712565b9150611a7182611a32565b602082019050919050565b5f6020820190508181035f830152611a9381611a5a565b9050919050565b611aa381611699565b82525050565b5f604082019050611abc5f830185611a9a565b611ac96020830184611515565b9392505050565b5f602082019050611ae35f830184611a9a565b92915050565b7f416d6f756e7473206d7573742062652067726561746572207468616e207a65725f8201527f6f00000000000000000000000000000000000000000000000000000000000000602082015250565b5f611b43602183611712565b9150611b4e82611ae9565b604082019050919050565b5f6020820190508181035f830152611b7081611b37565b9050919050565b7f496e73756666696369656e74206c6971756964697479206d696e7465640000005f82015250565b5f611bab601d83611712565b9150611bb682611b77565b602082019050919050565b5f6020820190508181035f830152611bd881611b9f565b9050919050565b7f496e76616c696420746f6b656e000000000000000000000000000000000000005f82015250565b5f611c13600d83611712565b9150611c1e82611bdf565b602082019050919050565b5f6020820190508181035f830152611c4081611c07565b9050919050565b5f606082019050611c5a5f830186611a9a565b611c676020830185611a9a565b611c746040830184611515565b949350505050565b5f8115159050919050565b611c9081611c7c565b8114611c9a575f80fd5b50565b5f81519050611cab81611c87565b92915050565b5f60208284031215611cc657611cc561148e565b5b5f611cd384828501611c9d565b91505092915050565b5f81519050919050565b5f81905092915050565b5f5b83811015611d0d578082015181840152602081019050611cf2565b5f8484015250505050565b5f611d2282611cdc565b611d2c8185611ce6565b9350611d3c818560208601611cf0565b80840191505092915050565b5f611d538284611d18565b91508190509291505056fea26469706673582212209c95bd9a7f1e2d3fb9119a74a73b14cd4754ee45517e0914f60272aab442ead364736f6c63430008140033608060405234801562000010575f80fd5b506040516200193f3803806200193f833981810160405281019062000036919062000334565b33828281600390816200004a9190620005ee565b5080600490816200005c9190620005ee565b5050505f73ffffffffffffffffffffffffffffffffffffffff168173ffffffffffffffffffffffffffffffffffffffff1603620000d2575f6040517f1e4fbdf7000000000000000000000000000000000000000000000000000000008152600401620000c9919062000715565b60405180910390fd5b620000e381620000ec60201b60201c565b50505062000730565b5f60055f9054906101000a900473ffffffffffffffffffffffffffffffffffffffff1690508160055f6101000a81548173ffffffffffffffffffffffffffffffffffffffff021916908373ffffffffffffffffffffffffffffffffffffffff1602179055508173ffffffffffffffffffffffffffffffffffffffff168173ffffffffffffffffffffffffffffffffffffffff167f8be0079c531659141344cd1fd0a4f28419497f9722a3daafe3b4186f6b6457e060405160405180910390a35050565b5f604051905090565b5f80fd5b5f80fd5b5f80fd5b5f80fd5b5f601f19601f8301169050919050565b7f4e487b71000000000000000000000000000000000000000000000000000000005f52604160045260245ffd5b6200021082620001c8565b810181811067ffffffffffffffff82111715620002325762000231620001d8565b5b80604052505050565b5f62000246620001af565b905062000254828262000205565b919050565b5f67ffffffffffffffff821115620002765762000275620001d8565b5b6200028182620001c8565b9050602081019050919050565b5f5b83811015620002ad57808201518184015260208101905062000290565b5f8484015250505050565b5f620002ce620002c88462000259565b6200023b565b905082815260208101848484011115620002ed57620002ec620001c4565b5b620002fa8482856200028e565b509392505050565b5f82601f830112620003195762000318620001c0565b5b81516200032b848260208601620002b8565b91505092915050565b5f80604083850312156200034d576200034c620001b8565b5b5f83015167ffffffffffffffff8111156200036d576200036c620001bc565b5b6200037b8582860162000302565b925050602083015167ffffffffffffffff8111156200039f576200039e620001bc565b5b620003ad8582860162000302565b9150509250929050565b5f81519050919050565b7f4e487b71000000000000000000000000000000000000000000000000000000005f52602260045260245ffd5b5f60028204905060018216806200040657607f821691505b6020821081036200041c576200041b620003c1565b5b50919050565b5f819050815f5260205f209050919050565b5f6020601f8301049050919050565b5f82821b905092915050565b5f60088302620004807fffffffffffffffffffffffffffffffffffffffffffffffffffffffffffffffff8262000443565b6200048c868362000443565b95508019841693508086168417925050509392505050565b5f819050919050565b5f819050919050565b5f620004d6620004d0620004ca84620004a4565b620004ad565b620004a4565b9050919050565b5f819050919050565b620004f183620004b6565b620005096200050082620004dd565b8484546200044f565b825550505050565b5f90565b6200051f62000511565b6200052c818484620004e6565b505050565b5b818110156200055357620005475f8262000515565b60018101905062000532565b5050565b601f821115620005a2576200056c8162000422565b620005778462000434565b8101602085101562000587578190505b6200059f620005968562000434565b83018262000531565b50505b505050565b5f82821c905092915050565b5f620005c45f1984600802620005a7565b1980831691505092915050565b5f620005de8383620005b3565b9150826002028217905092915050565b620005f982620003b7565b67ffffffffffffffff811115620006155762000614620001d8565b5b620006218254620003ee565b6200062e82828562000557565b5f60209050601f83116001811462000664575f84156200064f578287015190505b6200065b8582620005d1565b865550620006ca565b601f198416620006748662000422565b5f5b828110156200069d5784890151825560018201915060208501945060208101905062000676565b86831015620006bd5784890151620006b9601f891682620005b3565b8355505b6001600288020188555050505b505050505050565b5f73ffffffffffffffffffffffffffffffffffffffff82169050919050565b5f620006fd82620006d2565b9050919050565b6200070f81620006f1565b82525050565b5f6020820190506200072a5f83018462000704565b92915050565b611201806200073e5f395ff3fe608060405234801561000f575f80fd5b50600436106100e8575f3560e01c8063715018a61161008a5780639dc29fac116100645780639dc29fac14610238578063a9059cbb14610254578063dd62ed3e14610284578063f2fde38b146102b4576100e8565b8063715018a6146101f25780638da5cb5b146101fc57806395d89b411461021a576100e8565b806323b872dd116100c657806323b872dd14610158578063313ce5671461018857806340c10f19146101a657806370a08231146101c2576100e8565b806306fdde03146100ec578063095ea7b31461010a57806318160ddd1461013a575b5f80fd5b6100f46102d0565b6040516101019190610e7a565b60405180910390f35b610124600480360381019061011f9190610f2b565b610360565b6040516101319190610f83565b60405180910390f35b610142610382565b60405161014f9190610fab565b60405180910390f35b610172600480360381019061016d9190610fc4565b61038b565b60405161017f9190610f83565b60405180910390f35b6101906103b9565b60405161019d919061102f565b60405180910390f35b6101c060048036038101906101bb9190610f2b565b6103c1565b005b6101dc60048036038101906101d79190611048565b6103d7565b6040516101e99190610fab565b60405180910390f35b6101fa61041c565b005b61020461042f565b6040516102119190611082565b60405180910390f35b610222610457565b60405161022f9190610e7a565b60405180910390f35b610252600480360381019061024d9190610f2b565b6104e7565b005b61026e60048036038101906102699190610f2b565b6104fd565b60405161027b9190610f83565b60405180910390f35b61029e6004803603810190610299919061109b565b61051f565b6040516102ab9190610fab565b60405180910390f35b6102ce60048036038101906102c99190611048565b6105a1565b005b6060600380546102df90611106565b80601f016020809104026020016040519081016040528092919081815260200182805461030b90611106565b80156103565780601f1061032d57610100808354040283529160200191610356565b820191905f5260205f20905b81548152906001019060200180831161033957829003601f168201915b5050505050905090565b5f8061036a610625565b905061037781858561062c565b600191505092915050565b5f600254905090565b5f80610395610625565b90506103a285828561063e565b6103ad8585856106d0565b60019150509392505050565b5f6012905090565b6103c96107c0565b6103d38282610847565b5050565b5f805f8373ffffffffffffffffffffffffffffffffffffffff1673ffffffffffffffffffffffffffffffffffffffff1681526020019081526020015f20549050919050565b6104246107c0565b61042d5f6108c6565b565b5f60055f9054906101000a900473ffffffffffffffffffffffffffffffffffffffff16905090565b60606004805461046690611106565b80601f016020809104026020016040519081016040528092919081815260200182805461049290611106565b80156104dd5780601f106104b4576101008083540402835291602001916104dd565b820191905f5260205f20905b8154815290600101906020018083116104c057829003601f168201915b5050505050905090565b6104ef6107c0565b6104f98282610989565b5050565b5f80610507610625565b90506105148185856106d0565b600191505092915050565b5f60015f8473ffffffffffffffffffffffffffffffffffffffff1673ffffffffffffffffffffffffffffffffffffffff1681526020019081526020015f205f8373ffffffffffffffffffffffffffffffffffffffff1673ffffffffffffffffffffffffffffffffffffffff1681526020019081526020015f2054905092915050565b6105a96107c0565b5f73ffffffffffffffffffffffffffffffffffffffff168173ffffffffffffffffffffffffffffffffffffffff1603610619575f6040517f1e4fbdf70000000000000000000000000000000000000000000000000000000081526004016106109190611082565b60405180910390fd5b610622816108c6565b50565b5f33905090565b6106398383836001610a08565b505050565b5f610649848461051f565b90507fffffffffffffffffffffffffffffffffffffffffffffffffffffffffffffffff81146106ca57818110156106bb578281836040517ffb8f41b20000000000000000000000000000000000000000000000000000000081526004016106b293929190611136565b60405180910390fd5b6106c984848484035f610a08565b5b50505050565b5f73ffffffffffffffffffffffffffffffffffffffff168373ffffffffffffffffffffffffffffffffffffffff1603610740575f6040517f96c6fd1e0000000000000000000000000000000000000000000000000000000081526004016107379190611082565b60405180910390fd5b5f73ffffffffffffffffffffffffffffffffffffffff168273ffffffffffffffffffffffffffffffffffffffff16036107b0575f6040517fec442f050000000000000000000000000000000000000000000000000000000081526004016107a79190611082565b60405180910390fd5b6107bb838383610bd7565b505050565b6107c8610625565b73ffffffffffffffffffffffffffffffffffffffff166107e661042f565b73ffffffffffffffffffffffffffffffffffffffff161461084557610809610625565b6040517f118cdaa700000000000000000000000000000000000000000000000000000000815260040161083c9190611082565b60405180910390fd5b565b5f73ffffffffffffffffffffffffffffffffffffffff168273ffffffffffffffffffffffffffffffffffffffff16036108b7575f6040517fec442f050000000000000000000000000000000000000000000000000000000081526004016108ae9190611082565b60405180910390fd5b6108c25f8383610bd7565b5050565b5f60055f9054906101000a900473ffffffffffffffffffffffffffffffffffffffff1690508160055f6101000a81548173ffffffffffffffffffffffffffffffffffffffff021916908373ffffffffffffffffffffffffffffffffffffffff1602179055508173ffffffffffffffffffffffffffffffffffffffff168173ffffffffffffffffffffffffffffffffffffffff167f8be0079c531659141344cd1fd0a4f28419497f9722a3daafe3b4186f6b6457e060405160405180910390a35050565b5f73ffffffffffffffffffffffffffffffffffffffff168273ffffffffffffffffffffffffffffffffffffffff16036109f9575f6040517f96c6fd1e0000000000000000000000000000000000000000000000000000000081526004016109f09190611082565b60405180910390fd5b610a04825f83610bd7565b5050565b5f73ffffffffffffffffffffffffffffffffffffffff168473ffffffffffffffffffffffffffffffffffffffff1603610a78575f6040517fe602df05000000000000000000000000000000000000000000000000000000008152600401610a6f9190611082565b60405180910390fd5b5f73ffffffffffffffffffffffffffffffffffffffff168373ffffffffffffffffffffffffffffffffffffffff1603610ae8575f6040517f94280d62000000000000000000000000000000000000000000000000000000008152600401610adf9190611082565b60405180910390fd5b8160015f8673ffffffffffffffffffffffffffffffffffffffff1673ffffffffffffffffffffffffffffffffffffffff1681526020019081526020015f205f8573ffffffffffffffffffffffffffffffffffffffff1673ffffffffffffffffffffffffffffffffffffffff1681526020019081526020015f20819055508015610bd1578273ffffffffffffffffffffffffffffffffffffffff168473ffffffffffffffffffffffffffffffffffffffff167f8c5be1e5ebec7d5bd14f71427d1e84f3dd0314c0f7b2291e5b200ac8c7c3b92584604051610bc89190610fab565b60405180910390a35b50505050565b5f73ffffffffffffffffffffffffffffffffffffffff168373ffffffffffffffffffffffffffffffffffffffff1603610c27578060025f828254610c1b9190611198565b92505081905550610cf5565b5f805f8573ffffffffffffffffffffffffffffffffffffffff1673ffffffffffffffffffffffffffffffffffffffff1681526020019081526020015f2054905081811015610cb0578381836040517fe450d38c000000000000000000000000000000000000000000000000000000008152600401610ca793929190611136565b60405180910390fd5b8181035f808673ffffffffffffffffffffffffffffffffffffffff1673ffffffffffffffffffffffffffffffffffffffff1681526020019081526020015f2081905550505b5f73ffffffffffffffffffffffffffffffffffffffff168273ffffffffffffffffffffffffffffffffffffffff1603610d3c578060025f8282540392505081905550610d86565b805f808473ffffffffffffffffffffffffffffffffffffffff1673ffffffffffffffffffffffffffffffffffffffff1681526020019081526020015f205f82825401925050819055505b8173ffffffffffffffffffffffffffffffffffffffff168373ffffffffffffffffffffffffffffffffffffffff167fddf252ad1be2c89b69c2b068fc378daa952ba7f163c4a11628f55a4df523b3ef83604051610de39190610fab565b60405180910390a3505050565b5f81519050919050565b5f82825260208201905092915050565b5f5b83811015610e27578082015181840152602081019050610e0c565b5f8484015250505050565b5f601f19601f8301169050919050565b5f610e4c82610df0565b610e568185610dfa565b9350610e66818560208601610e0a565b610e6f81610e32565b840191505092915050565b5f6020820190508181035f830152610e928184610e42565b905092915050565b5f80fd5b5f73ffffffffffffffffffffffffffffffffffffffff82169050919050565b5f610ec782610e9e565b9050919050565b610ed781610ebd565b8114610ee1575f80fd5b50565b5f81359050610ef281610ece565b92915050565b5f819050919050565b610f0a81610ef8565b8114610f14575f80fd5b50565b5f81359050610f2581610f01565b92915050565b5f8060408385031215610f4157610f40610e9a565b5b5f610f4e85828601610ee4565b9250506020610f5f85828601610f17565b9150509250929050565b5f8115159050919050565b610f7d81610f69565b82525050565b5f602082019050610f965f830184610f74565b92915050565b610fa581610ef8565b82525050565b5f602082019050610fbe5f830184610f9c565b92915050565b5f805f60608486031215610fdb57610fda610e9a565b5b5f610fe886828701610ee4565b9350506020610ff986828701610ee4565b925050604061100a86828701610f17565b9150509250925092565b5f60ff82169050919050565b61102981611014565b82525050565b5f6020820190506110425f830184611020565b92915050565b5f6020828403121561105d5761105c610e9a565b5b5f61106a84828501610ee4565b91505092915050565b61107c81610ebd565b82525050565b5f6020820190506110955f830184611073565b92915050565b5f80604083850312156110b1576110b0610e9a565b5b5f6110be85828601610ee4565b92505060206110cf85828601610ee4565b9150509250929050565b7f4e487b71000000000000000000000000000000000000000000000000000000005f52602260045260245ffd5b5f600282049050600182168061111d57607f821691505b6020821081036111305761112f6110d9565b5b50919050565b5f6060820190506111495f830186611073565b6111566020830185610f9c565b6111636040830184610f9c565b949350505050565b7f4e487b71000000000000000000000000000000000000000000000000000000005f52601160045260245ffd5b5f6111a282610ef8565b91506111ad83610ef8565b92508282019050808211156111c5576111c461116b565b5b9291505056fea264697066735822122079bb594e88ba097546593b7d04de10ffb76aadf71592e09ec2086dd80f542dc364736f6c63430008140033",
  "immutableReferences": {},
  "source": "// SPDX-License-Identifier: MIT\npragma solidity ^0.8.0;\n\nimport \"./MyToken.sol\";\nimport \"./LPToken.sol\";\nimport \"@openzeppelin/contracts/token/ERC20/IERC20.sol\";\nimport \"@openzeppelin/contracts/token/ERC20/utils/SafeERC20.sol\";\n\n// fully functional liquidity pool that allows users to add liquidity, remove liquidity, and perform token swaps based on the x*y=k constant product formula\ncontract LiquidityPool {\n    using SafeERC20 for IERC20;\n\n    IERC20 public tokenA;\n    IERC20 public tokenB;\n    LPToken public lpToken;\n\n    uint256 public reserveA;\n    uint256 public reserveB;\n\n    constructor(address _tokenA, address _tokenB) {\n        tokenA = IERC20(_tokenA);\n        tokenB = IERC20(_tokenB);\n        lpToken = new LPToken(\"Liquidity Pool Token\", \"LPT\");\n    }\n\n    // allows users to add liquidity to the pool by depositing an equal value of Token A and Token B\n    function addLiquidity(uint256 amountA, uint256 amountB) external {\n        require(amountA > 0 && amountB > 0, \"Amounts must be greater than zero\");\n\n        uint256 lpTokenSupply = lpToken.totalSupply();\n        uint256 liquidity;\n\n        // calculates amount of LP tokens to mint based on the ratio of provided liquidity : existing reserves\n        if (lpTokenSupply == 0) {\n            liquidity = sqrt(amountA * amountB);\n        } else {\n            liquidity = min(\n                (amountA * lpTokenSupply) / reserveA,\n                (amountB * lpTokenSupply) / reserveB\n            );\n        }\n\n        require(liquidity > 0, \"Insufficient liquidity minted\");\n\n        tokenA.safeTransferFrom(msg.sender, address(this), amountA);\n        tokenB.safeTransferFrom(msg.sender, address(this), amountB);\n\n        lpToken.mint(msg.sender, liquidity);\n\n        reserveA = tokenA.balanceOf(address(this));\n        reserveB = tokenB.balanceOf(address(this));\n    }\n\n    // allows liquidity providers to withdraw their share of the pool by burning their LP tokens\n    function removeLiquidity(uint256 lpAmount) external {\n        require(lpAmount > 0, \"Amount must be greater than zero\");\n\n        // calculates proportional amount of Tokens A and B to transfer back to provider based on the ratio of burned LP tokens : total supply\n        uint256 lpTokenSupply = lpToken.totalSupply();\n        uint256 amountA = (lpAmount * reserveA) / lpTokenSupply;\n        uint256 amountB = (lpAmount * reserveB) / lpTokenSupply;\n\n        require(amountA > 0 && amountB > 0, \"Insufficient liquidity burned\");\n\n        lpToken.burn(msg.sender, lpAmount);\n\n        tokenA.safeTransfer(msg.sender, amountA);\n        tokenB.safeTransfer(msg.sender, amountB);\n\n        reserveA = tokenA.balanceOf(address(this));\n        reserveB = tokenB.balanceOf(address(this));\n    }\n\n    // calculates current exchange price of Token A in terms of Token B based on the x*y=k constant product formula\n    function getPrice() external view returns (uint256) {\n        require(reserveA > 0 && reserveB > 0, \"Insufficient liquidity\");\n        return (reserveB * 1e18) / reserveA;\n    }\n\n    // allows users to swap one token for another based on the x*y=k constant product formula\n    function swap(address tokenIn, uint256 amountIn) external {\n        require(tokenIn == address(tokenA) || tokenIn == address(tokenB), \"Invalid token\");\n        require(amountIn > 0, \"Amount must be greater than zero\");\n\n        bool isTokenA = tokenIn == address(tokenA);\n        (IERC20 tokenInContract, IERC20 tokenOutContract, uint256 reserveIn, uint256 reserveOut) = isTokenA\n            ? (tokenA, tokenB, reserveA, reserveB)\n            : (tokenB, tokenA, reserveB, reserveA);\n\n        tokenInContract.safeTransferFrom(msg.sender, address(this), amountIn);\n\n        uint256 amountOut = getAmountOut(amountIn, reserveIn, reserveOut);\n        require(amountOut > 0, \"Insufficient output amount\");\n\n        tokenOutContract.safeTransfer(msg.sender, amountOut);\n\n        reserveA = tokenA.balanceOf(address(this));\n        reserveB = tokenB.balanceOf(address(this));\n    }\n\n    // implements x*y=k constant product formula to calculate amount of tokens to receive in a swap\n    function getAmountOut(uint256 amountIn, uint256 reserveIn, uint256 reserveOut) public pure returns (uint256) {\n        require(amountIn > 0, \"Insufficient input amount\");\n        require(reserveIn > 0 && reserveOut > 0, \"Insufficient liquidity\");\n\n        // takes into account a 0.3% fee\n        uint256 amountInWithFee = amountIn * 997;\n        uint256 numerator = amountInWithFee * reserveOut;\n        uint256 denominator = (reserveIn * 1000) + amountInWithFee;\n\n        return numerator / denominator;\n    }\n\n    // calculate the amount of Token A required to receive a specific amount of Token B in a swap (and vice versa)\n    function getAmountIn(uint256 amountOut, uint256 reserveIn, uint256 reserveOut) public pure returns (uint256) {\n        require(amountOut > 0, \"Insufficient output amount\");\n        require(reserveIn > 0 && reserveOut > 0, \"Insufficient liquidity\");\n\n        uint256 numerator = reserveIn * amountOut * 1000;\n        uint256 denominator = (reserveOut - amountOut) * 997;\n\n        return (numerator / denominator) + 1;\n    }\n\n    // retrieve the current reserves of Token A and Token B\n    function getReserves() external view returns (uint256, uint256) {\n        return (reserveA, reserveB);\n    }\n\n    function sqrt(uint256 y) internal pure returns (uint256 z) {\n        if (y > 3) {\n            z = y;\n            uint256 x = y / 2 + 1;\n            while (x < z) {\n                z = x;\n                x = (y / x + x) / 2;\n            }\n        } else if (y != 0) {\n            z = 1;\n        }\n    }\n\n    function min(uint256 a, uint256 b) internal pure returns (uint256) {\n        return a < b ? a : b;\n    }\n}\n",
  "sourcePath": "/Users/rohansharma/PersonalProjects/decentralized-exchange/contracts/LiquidityPool.sol",
  "compiler": {
    "name": "solc",
    "version": "0.8.20+commit.a1b79de6.Emscripten.clang"
  },
  "schemaVersion": "3.4.16",
  "updatedAt": "2024-06-02T22:58:53.652Z",
  "devdoc": {
    "errors": {
      "AddressEmptyCode(address)": [
        {
          "details": "There's no code at `target` (it is not a contract)."
        }
      ],
      "AddressInsufficientBalance(address)": [
        {
          "details": "The ETH balance of the account is not enough to perform the operation."
        }
      ],
      "FailedInnerCall()": [
        {
          "details": "A call to an address target failed. The target may have reverted."
        }
      ],
      "SafeERC20FailedOperation(address)": [
        {
          "details": "An operation with an ERC20 token failed."
        }
      ]
    },
    "kind": "dev",
    "methods": {},
    "version": 1
  },
  "userdoc": {
    "kind": "user",
    "methods": {},
    "version": 1
  }
}