{
  "contractName": "LiquidityPool",
  "abi": [
    {
      "inputs": [
        {
          "internalType": "address",
          "name": "_tokenA",
          "type": "address"
        },
        {
          "internalType": "address",
          "name": "_tokenB",
          "type": "address"
        }
      ],
      "stateMutability": "nonpayable",
      "type": "constructor"
    },
    {
      "inputs": [
        {
          "internalType": "address",
          "name": "target",
          "type": "address"
        }
      ],
      "name": "AddressEmptyCode",
      "type": "error"
    },
    {
      "inputs": [
        {
          "internalType": "address",
          "name": "account",
          "type": "address"
        }
      ],
      "name": "AddressInsufficientBalance",
      "type": "error"
    },
    {
      "inputs": [],
      "name": "FailedInnerCall",
      "type": "error"
    },
    {
      "inputs": [
        {
          "internalType": "address",
          "name": "token",
          "type": "address"
        }
      ],
      "name": "SafeERC20FailedOperation",
      "type": "error"
    },
    {
      "anonymous": false,
      "inputs": [
        {
          "indexed": false,
          "internalType": "uint256",
          "name": "amountA",
          "type": "uint256"
        },
        {
          "indexed": false,
          "internalType": "uint256",
          "name": "amountB",
          "type": "uint256"
        },
        {
          "indexed": false,
          "internalType": "uint256",
          "name": "liquidity",
          "type": "uint256"
        }
      ],
      "name": "LiquidityAdded",
      "type": "event"
    },
    {
      "anonymous": false,
      "inputs": [
        {
          "indexed": false,
          "internalType": "uint256",
          "name": "reserveA",
          "type": "uint256"
        },
        {
          "indexed": false,
          "internalType": "uint256",
          "name": "reserveB",
          "type": "uint256"
        }
      ],
      "name": "ReservesUpdated",
      "type": "event"
    },
    {
      "inputs": [],
      "name": "lpToken",
      "outputs": [
        {
          "internalType": "contract LPToken",
          "name": "",
          "type": "address"
        }
      ],
      "stateMutability": "view",
      "type": "function",
      "constant": true
    },
    {
      "inputs": [],
      "name": "reserveA",
      "outputs": [
        {
          "internalType": "uint256",
          "name": "",
          "type": "uint256"
        }
      ],
      "stateMutability": "view",
      "type": "function",
      "constant": true
    },
    {
      "inputs": [],
      "name": "reserveB",
      "outputs": [
        {
          "internalType": "uint256",
          "name": "",
          "type": "uint256"
        }
      ],
      "stateMutability": "view",
      "type": "function",
      "constant": true
    },
    {
      "inputs": [],
      "name": "tokenA",
      "outputs": [
        {
          "internalType": "contract IERC20",
          "name": "",
          "type": "address"
        }
      ],
      "stateMutability": "view",
      "type": "function",
      "constant": true
    },
    {
      "inputs": [],
      "name": "tokenB",
      "outputs": [
        {
          "internalType": "contract IERC20",
          "name": "",
          "type": "address"
        }
      ],
      "stateMutability": "view",
      "type": "function",
      "constant": true
    },
    {
      "inputs": [
        {
          "internalType": "address",
          "name": "account",
          "type": "address"
        }
      ],
      "name": "balanceOf",
      "outputs": [
        {
          "internalType": "uint256",
          "name": "",
          "type": "uint256"
        }
      ],
      "stateMutability": "view",
      "type": "function",
      "constant": true
    },
    {
      "inputs": [
        {
          "internalType": "uint256",
          "name": "amountA",
          "type": "uint256"
        },
        {
          "internalType": "uint256",
          "name": "amountB",
          "type": "uint256"
        }
      ],
      "name": "addLiquidity",
      "outputs": [],
      "stateMutability": "nonpayable",
      "type": "function"
    },
    {
      "inputs": [
        {
          "internalType": "uint256",
          "name": "liquidity",
          "type": "uint256"
        }
      ],
      "name": "removeLiquidity",
      "outputs": [],
      "stateMutability": "nonpayable",
      "type": "function"
    },
    {
      "inputs": [
        {
          "internalType": "address",
          "name": "tokenIn",
          "type": "address"
        },
        {
          "internalType": "uint256",
          "name": "amountIn",
          "type": "uint256"
        }
      ],
      "name": "swap",
      "outputs": [],
      "stateMutability": "nonpayable",
      "type": "function"
    },
    {
      "inputs": [
        {
          "internalType": "uint256",
          "name": "amountIn",
          "type": "uint256"
        },
        {
          "internalType": "uint256",
          "name": "reserveIn",
          "type": "uint256"
        },
        {
          "internalType": "uint256",
          "name": "reserveOut",
          "type": "uint256"
        }
      ],
      "name": "getAmountOut",
      "outputs": [
        {
          "internalType": "uint256",
          "name": "",
          "type": "uint256"
        }
      ],
      "stateMutability": "pure",
      "type": "function",
      "constant": true
    },
    {
      "inputs": [
        {
          "internalType": "uint256",
          "name": "amountOut",
          "type": "uint256"
        },
        {
          "internalType": "uint256",
          "name": "reserveIn",
          "type": "uint256"
        },
        {
          "internalType": "uint256",
          "name": "reserveOut",
          "type": "uint256"
        }
      ],
      "name": "getAmountIn",
      "outputs": [
        {
          "internalType": "uint256",
          "name": "",
          "type": "uint256"
        }
      ],
      "stateMutability": "pure",
      "type": "function",
      "constant": true
    },
    {
      "inputs": [],
      "name": "getReserves",
      "outputs": [
        {
          "internalType": "uint256",
          "name": "",
          "type": "uint256"
        },
        {
          "internalType": "uint256",
          "name": "",
          "type": "uint256"
        }
      ],
      "stateMutability": "view",
      "type": "function",
      "constant": true
    }
  ],
  "bytecode": "0x608060405234801562000010575f80fd5b5060405162003825380380620038258339818101604052810190620000369190620001a3565b815f806101000a81548173ffffffffffffffffffffffffffffffffffffffff021916908373ffffffffffffffffffffffffffffffffffffffff1602179055508060015f6101000a81548173ffffffffffffffffffffffffffffffffffffffff021916908373ffffffffffffffffffffffffffffffffffffffff160217905550604051620000c39062000130565b620000ce9062000294565b604051809103905ff080158015620000e8573d5f803e3d5ffd5b5060025f6101000a81548173ffffffffffffffffffffffffffffffffffffffff021916908373ffffffffffffffffffffffffffffffffffffffff1602179055505050620002c9565b61193f8062001ee683390190565b5f80fd5b5f73ffffffffffffffffffffffffffffffffffffffff82169050919050565b5f6200016d8262000142565b9050919050565b6200017f8162000161565b81146200018a575f80fd5b50565b5f815190506200019d8162000174565b92915050565b5f8060408385031215620001bc57620001bb6200013e565b5b5f620001cb858286016200018d565b9250506020620001de858286016200018d565b9150509250929050565b5f82825260208201905092915050565b7f4c697175696469747920506f6f6c20546f6b656e0000000000000000000000005f82015250565b5f6200022e601483620001e8565b91506200023b82620001f8565b602082019050919050565b7f4c505400000000000000000000000000000000000000000000000000000000005f82015250565b5f6200027c600383620001e8565b9150620002898262000246565b602082019050919050565b5f6040820190508181035f830152620002ad8162000220565b90508181036020830152620002c2816200026e565b9050919050565b611c0f80620002d75f395ff3fe608060405234801561000f575f80fd5b50600436106100b2575f3560e01c806370a082311161006f57806370a082311461017d57806385f8c259146101ad5780639c8f9f23146101dd5780639cd441da146101f9578063d004f0f714610215578063dc5fa6c514610231576100b2565b8063054d50d4146100b65780630902f1ac146100e65780630fc63d101461010557806319e36f3b146101235780635f64b55b146101415780635fcbd2851461015f575b5f80fd5b6100d060048036038101906100cb9190611252565b61024f565b6040516100dd91906112b1565b60405180910390f35b6100ee610333565b6040516100fc9291906112ca565b60405180910390f35b61010d610343565b60405161011a919061136b565b60405180910390f35b61012b610366565b60405161013891906112b1565b60405180910390f35b61014961036c565b604051610156919061136b565b60405180910390f35b610167610391565b60405161017491906113a4565b60405180910390f35b610197600480360381019061019291906113f8565b6103b6565b6040516101a491906112b1565b60405180910390f35b6101c760048036038101906101c29190611252565b610457565b6040516101d491906112b1565b60405180910390f35b6101f760048036038101906101f29190611423565b610542565b005b610213600480360381019061020e919061144e565b61082c565b005b61022f600480360381019061022a919061148c565b610b7d565b005b610239610e41565b60405161024691906112b1565b60405180910390f35b5f808411610292576040517f08c379a000000000000000000000000000000000000000000000000000000000815260040161028990611524565b60405180910390fd5b5f831180156102a057505f82115b6102df576040517f08c379a00000000000000000000000000000000000000000000000000000000081526004016102d69061158c565b60405180910390fd5b5f6103e5856102ee91906115d7565b90505f83826102fd91906115d7565b90505f826103e88761030f91906115d7565b6103199190611618565b905080826103279190611678565b93505050509392505050565b5f80600354600454915091509091565b5f8054906101000a900473ffffffffffffffffffffffffffffffffffffffff1681565b60045481565b60015f9054906101000a900473ffffffffffffffffffffffffffffffffffffffff1681565b60025f9054906101000a900473ffffffffffffffffffffffffffffffffffffffff1681565b5f60025f9054906101000a900473ffffffffffffffffffffffffffffffffffffffff1673ffffffffffffffffffffffffffffffffffffffff166370a08231836040518263ffffffff1660e01b815260040161041191906116b7565b602060405180830381865afa15801561042c573d5f803e3d5ffd5b505050506040513d601f19601f8201168201806040525081019061045091906116e4565b9050919050565b5f80841161049a576040517f08c379a000000000000000000000000000000000000000000000000000000000815260040161049190611759565b60405180910390fd5b5f831180156104a857505f82115b6104e7576040517f08c379a00000000000000000000000000000000000000000000000000000000081526004016104de9061158c565b60405180910390fd5b5f6103e885856104f791906115d7565b61050191906115d7565b90505f6103e586856105139190611777565b61051d91906115d7565b90506001818361052d9190611678565b6105379190611618565b925050509392505050565b5f8111610584576040517f08c379a000000000000000000000000000000000000000000000000000000000815260040161057b9061181a565b60405180910390fd5b5f60025f9054906101000a900473ffffffffffffffffffffffffffffffffffffffff1673ffffffffffffffffffffffffffffffffffffffff166318160ddd6040518163ffffffff1660e01b8152600401602060405180830381865afa1580156105ef573d5f803e3d5ffd5b505050506040513d601f19601f8201168201806040525081019061061391906116e4565b90505f816003548461062591906115d7565b61062f9190611678565b90505f826004548561064191906115d7565b61064b9190611678565b90505f8211801561065b57505f81115b61069a576040517f08c379a000000000000000000000000000000000000000000000000000000000815260040161069190611882565b60405180910390fd5b8160035f8282546106ab9190611777565b925050819055508060045f8282546106c39190611777565b9250508190555061071433835f8054906101000a900473ffffffffffffffffffffffffffffffffffffffff1673ffffffffffffffffffffffffffffffffffffffff16610e479092919063ffffffff16565b610760338260015f9054906101000a900473ffffffffffffffffffffffffffffffffffffffff1673ffffffffffffffffffffffffffffffffffffffff16610e479092919063ffffffff16565b60025f9054906101000a900473ffffffffffffffffffffffffffffffffffffffff1673ffffffffffffffffffffffffffffffffffffffff16639dc29fac33866040518363ffffffff1660e01b81526004016107bc9291906118a0565b5f604051808303815f87803b1580156107d3575f80fd5b505af11580156107e5573d5f803e3d5ffd5b505050507f5141ecc84a35c12ca2bf76bb33d393bd2fc22f906da0743534beef4ae63c6c8e60035460045460405161081e9291906112ca565b60405180910390a150505050565b5f8211801561083a57505f81115b610879576040517f08c379a000000000000000000000000000000000000000000000000000000000815260040161087090611937565b60405180910390fd5b5f60025f9054906101000a900473ffffffffffffffffffffffffffffffffffffffff1673ffffffffffffffffffffffffffffffffffffffff166318160ddd6040518163ffffffff1660e01b8152600401602060405180830381865afa1580156108e4573d5f803e3d5ffd5b505050506040513d601f19601f8201168201806040525081019061090891906116e4565b90505f80820361092d57610926838561092191906115d7565b610ec6565b905061096a565b610967600354838661093f91906115d7565b6109499190611678565b600454848661095891906115d7565b6109629190611678565b610f3d565b90505b5f81116109ac576040517f08c379a00000000000000000000000000000000000000000000000000000000081526004016109a39061199f565b60405180910390fd5b8360035f8282546109bd9190611618565b925050819055508260045f8282546109d59190611618565b92505081905550610a283330865f8054906101000a900473ffffffffffffffffffffffffffffffffffffffff1673ffffffffffffffffffffffffffffffffffffffff16610f55909392919063ffffffff16565b610a7633308560015f9054906101000a900473ffffffffffffffffffffffffffffffffffffffff1673ffffffffffffffffffffffffffffffffffffffff16610f55909392919063ffffffff16565b60025f9054906101000a900473ffffffffffffffffffffffffffffffffffffffff1673ffffffffffffffffffffffffffffffffffffffff166340c10f1933836040518363ffffffff1660e01b8152600401610ad29291906118a0565b5f604051808303815f87803b158015610ae9575f80fd5b505af1158015610afb573d5f803e3d5ffd5b505050507fd7f28048575eead8851d024ead087913957dfb4fd1a02b4d1573f5352a5a2be3848483604051610b32939291906119bd565b60405180910390a17f5141ecc84a35c12ca2bf76bb33d393bd2fc22f906da0743534beef4ae63c6c8e600354600454604051610b6f9291906112ca565b60405180910390a150505050565b5f8111610bbf576040517f08c379a0000000000000000000000000000000000000000000000000000000008152600401610bb690611a3c565b60405180910390fd5b5f805f9054906101000a900473ffffffffffffffffffffffffffffffffffffffff1673ffffffffffffffffffffffffffffffffffffffff168373ffffffffffffffffffffffffffffffffffffffff161490505f60015f9054906101000a900473ffffffffffffffffffffffffffffffffffffffff1673ffffffffffffffffffffffffffffffffffffffff168473ffffffffffffffffffffffffffffffffffffffff161490508180610c6d5750805b610cac576040517f08c379a0000000000000000000000000000000000000000000000000000000008152600401610ca390611aa4565b60405180910390fd5b5f805f84610cdf576004546003545f8054906101000a900473ffffffffffffffffffffffffffffffffffffffff16610d08565b60035460045460015f9054906101000a900473ffffffffffffffffffffffffffffffffffffffff165b9250925092505f610d1a87858561024f565b90505f8111610d5e576040517f08c379a0000000000000000000000000000000000000000000000000000000008152600401610d5590611759565b60405180910390fd5b8684610d6a9190611618565b93508083610d789190611777565b92508515610d93578360038190555082600481905550610da2565b82600381905550836004819055505b610dcf3330898b73ffffffffffffffffffffffffffffffffffffffff16610f55909392919063ffffffff16565b610dfa33828473ffffffffffffffffffffffffffffffffffffffff16610e479092919063ffffffff16565b7f5141ecc84a35c12ca2bf76bb33d393bd2fc22f906da0743534beef4ae63c6c8e600354600454604051610e2f9291906112ca565b60405180910390a15050505050505050565b60035481565b610ec1838473ffffffffffffffffffffffffffffffffffffffff1663a9059cbb8585604051602401610e7a9291906118a0565b604051602081830303815290604052915060e01b6020820180517bffffffffffffffffffffffffffffffffffffffffffffffffffffffff8381831617835250505050610fd7565b505050565b5f6003821115610f2b578190505f6001600284610ee39190611678565b610eed9190611618565b90505b81811015610f25578091506002818285610f0a9190611678565b610f149190611618565b610f1e9190611678565b9050610ef0565b50610f38565b5f8214610f3757600190505b5b919050565b5f818310610f4b5781610f4d565b825b905092915050565b610fd1848573ffffffffffffffffffffffffffffffffffffffff166323b872dd868686604051602401610f8a93929190611ac2565b604051602081830303815290604052915060e01b6020820180517bffffffffffffffffffffffffffffffffffffffffffffffffffffffff8381831617835250505050610fd7565b50505050565b5f611001828473ffffffffffffffffffffffffffffffffffffffff1661106c90919063ffffffff16565b90505f8151141580156110255750808060200190518101906110239190611b2c565b155b1561106757826040517f5274afe700000000000000000000000000000000000000000000000000000000815260040161105e91906116b7565b60405180910390fd5b505050565b606061107983835f611081565b905092915050565b6060814710156110c857306040517fcd7860590000000000000000000000000000000000000000000000000000000081526004016110bf91906116b7565b60405180910390fd5b5f808573ffffffffffffffffffffffffffffffffffffffff1684866040516110f09190611bc3565b5f6040518083038185875af1925050503d805f811461112a576040519150601f19603f3d011682016040523d82523d5f602084013e61112f565b606091505b509150915061113f86838361114a565b925050509392505050565b60608261115f5761115a826111d7565b6111cf565b5f825114801561118557505f8473ffffffffffffffffffffffffffffffffffffffff163b145b156111c757836040517f9996b3150000000000000000000000000000000000000000000000000000000081526004016111be91906116b7565b60405180910390fd5b8190506111d0565b5b9392505050565b5f815111156111e95780518082602001fd5b6040517f1425ea4200000000000000000000000000000000000000000000000000000000815260040160405180910390fd5b5f80fd5b5f819050919050565b6112318161121f565b811461123b575f80fd5b50565b5f8135905061124c81611228565b92915050565b5f805f606084860312156112695761126861121b565b5b5f6112768682870161123e565b93505060206112878682870161123e565b92505060406112988682870161123e565b9150509250925092565b6112ab8161121f565b82525050565b5f6020820190506112c45f8301846112a2565b92915050565b5f6040820190506112dd5f8301856112a2565b6112ea60208301846112a2565b9392505050565b5f73ffffffffffffffffffffffffffffffffffffffff82169050919050565b5f819050919050565b5f61133361132e611329846112f1565b611310565b6112f1565b9050919050565b5f61134482611319565b9050919050565b5f6113558261133a565b9050919050565b6113658161134b565b82525050565b5f60208201905061137e5f83018461135c565b92915050565b5f61138e8261133a565b9050919050565b61139e81611384565b82525050565b5f6020820190506113b75f830184611395565b92915050565b5f6113c7826112f1565b9050919050565b6113d7816113bd565b81146113e1575f80fd5b50565b5f813590506113f2816113ce565b92915050565b5f6020828403121561140d5761140c61121b565b5b5f61141a848285016113e4565b91505092915050565b5f602082840312156114385761143761121b565b5b5f6114458482850161123e565b91505092915050565b5f80604083850312156114645761146361121b565b5b5f6114718582860161123e565b92505060206114828582860161123e565b9150509250929050565b5f80604083850312156114a2576114a161121b565b5b5f6114af858286016113e4565b92505060206114c08582860161123e565b9150509250929050565b5f82825260208201905092915050565b7f496e73756666696369656e7420696e70757420616d6f756e74000000000000005f82015250565b5f61150e6019836114ca565b9150611519826114da565b602082019050919050565b5f6020820190508181035f83015261153b81611502565b9050919050565b7f496e73756666696369656e74206c6971756964697479000000000000000000005f82015250565b5f6115766016836114ca565b915061158182611542565b602082019050919050565b5f6020820190508181035f8301526115a38161156a565b9050919050565b7f4e487b71000000000000000000000000000000000000000000000000000000005f52601160045260245ffd5b5f6115e18261121f565b91506115ec8361121f565b92508282026115fa8161121f565b91508282048414831517611611576116106115aa565b5b5092915050565b5f6116228261121f565b915061162d8361121f565b9250828201905080821115611645576116446115aa565b5b92915050565b7f4e487b71000000000000000000000000000000000000000000000000000000005f52601260045260245ffd5b5f6116828261121f565b915061168d8361121f565b92508261169d5761169c61164b565b5b828204905092915050565b6116b1816113bd565b82525050565b5f6020820190506116ca5f8301846116a8565b92915050565b5f815190506116de81611228565b92915050565b5f602082840312156116f9576116f861121b565b5b5f611706848285016116d0565b91505092915050565b7f496e73756666696369656e74206f757470757420616d6f756e740000000000005f82015250565b5f611743601a836114ca565b915061174e8261170f565b602082019050919050565b5f6020820190508181035f83015261177081611737565b9050919050565b5f6117818261121f565b915061178c8361121f565b92508282039050818111156117a4576117a36115aa565b5b92915050565b7f4c6971756964697479206d7573742062652067726561746572207468616e207a5f8201527f65726f0000000000000000000000000000000000000000000000000000000000602082015250565b5f6118046023836114ca565b915061180f826117aa565b604082019050919050565b5f6020820190508181035f830152611831816117f8565b9050919050565b7f496e73756666696369656e74206c6971756964697479206275726e65640000005f82015250565b5f61186c601d836114ca565b915061187782611838565b602082019050919050565b5f6020820190508181035f83015261189981611860565b9050919050565b5f6040820190506118b35f8301856116a8565b6118c060208301846112a2565b9392505050565b7f416d6f756e7473206d7573742062652067726561746572207468616e207a65725f8201527f6f00000000000000000000000000000000000000000000000000000000000000602082015250565b5f6119216021836114ca565b915061192c826118c7565b604082019050919050565b5f6020820190508181035f83015261194e81611915565b9050919050565b7f496e73756666696369656e74206c6971756964697479206d696e7465640000005f82015250565b5f611989601d836114ca565b915061199482611955565b602082019050919050565b5f6020820190508181035f8301526119b68161197d565b9050919050565b5f6060820190506119d05f8301866112a2565b6119dd60208301856112a2565b6119ea60408301846112a2565b949350505050565b7f416d6f756e74206d7573742062652067726561746572207468616e207a65726f5f82015250565b5f611a266020836114ca565b9150611a31826119f2565b602082019050919050565b5f6020820190508181035f830152611a5381611a1a565b9050919050565b7f496e76616c696420746f6b656e206164647265737300000000000000000000005f82015250565b5f611a8e6015836114ca565b9150611a9982611a5a565b602082019050919050565b5f6020820190508181035f830152611abb81611a82565b9050919050565b5f606082019050611ad55f8301866116a8565b611ae260208301856116a8565b611aef60408301846112a2565b949350505050565b5f8115159050919050565b611b0b81611af7565b8114611b15575f80fd5b50565b5f81519050611b2681611b02565b92915050565b5f60208284031215611b4157611b4061121b565b5b5f611b4e84828501611b18565b91505092915050565b5f81519050919050565b5f81905092915050565b5f5b83811015611b88578082015181840152602081019050611b6d565b5f8484015250505050565b5f611b9d82611b57565b611ba78185611b61565b9350611bb7818560208601611b6b565b80840191505092915050565b5f611bce8284611b93565b91508190509291505056fea26469706673582212205332e85f001bc6d2157bde87c21bace5ae30e89c030f2d7a6bba9188eb8c094264736f6c63430008140033608060405234801562000010575f80fd5b506040516200193f3803806200193f833981810160405281019062000036919062000334565b33828281600390816200004a9190620005ee565b5080600490816200005c9190620005ee565b5050505f73ffffffffffffffffffffffffffffffffffffffff168173ffffffffffffffffffffffffffffffffffffffff1603620000d2575f6040517f1e4fbdf7000000000000000000000000000000000000000000000000000000008152600401620000c9919062000715565b60405180910390fd5b620000e381620000ec60201b60201c565b50505062000730565b5f60055f9054906101000a900473ffffffffffffffffffffffffffffffffffffffff1690508160055f6101000a81548173ffffffffffffffffffffffffffffffffffffffff021916908373ffffffffffffffffffffffffffffffffffffffff1602179055508173ffffffffffffffffffffffffffffffffffffffff168173ffffffffffffffffffffffffffffffffffffffff167f8be0079c531659141344cd1fd0a4f28419497f9722a3daafe3b4186f6b6457e060405160405180910390a35050565b5f604051905090565b5f80fd5b5f80fd5b5f80fd5b5f80fd5b5f601f19601f8301169050919050565b7f4e487b71000000000000000000000000000000000000000000000000000000005f52604160045260245ffd5b6200021082620001c8565b810181811067ffffffffffffffff82111715620002325762000231620001d8565b5b80604052505050565b5f62000246620001af565b905062000254828262000205565b919050565b5f67ffffffffffffffff821115620002765762000275620001d8565b5b6200028182620001c8565b9050602081019050919050565b5f5b83811015620002ad57808201518184015260208101905062000290565b5f8484015250505050565b5f620002ce620002c88462000259565b6200023b565b905082815260208101848484011115620002ed57620002ec620001c4565b5b620002fa8482856200028e565b509392505050565b5f82601f830112620003195762000318620001c0565b5b81516200032b848260208601620002b8565b91505092915050565b5f80604083850312156200034d576200034c620001b8565b5b5f83015167ffffffffffffffff8111156200036d576200036c620001bc565b5b6200037b8582860162000302565b925050602083015167ffffffffffffffff8111156200039f576200039e620001bc565b5b620003ad8582860162000302565b9150509250929050565b5f81519050919050565b7f4e487b71000000000000000000000000000000000000000000000000000000005f52602260045260245ffd5b5f60028204905060018216806200040657607f821691505b6020821081036200041c576200041b620003c1565b5b50919050565b5f819050815f5260205f209050919050565b5f6020601f8301049050919050565b5f82821b905092915050565b5f60088302620004807fffffffffffffffffffffffffffffffffffffffffffffffffffffffffffffffff8262000443565b6200048c868362000443565b95508019841693508086168417925050509392505050565b5f819050919050565b5f819050919050565b5f620004d6620004d0620004ca84620004a4565b620004ad565b620004a4565b9050919050565b5f819050919050565b620004f183620004b6565b620005096200050082620004dd565b8484546200044f565b825550505050565b5f90565b6200051f62000511565b6200052c818484620004e6565b505050565b5b818110156200055357620005475f8262000515565b60018101905062000532565b5050565b601f821115620005a2576200056c8162000422565b620005778462000434565b8101602085101562000587578190505b6200059f620005968562000434565b83018262000531565b50505b505050565b5f82821c905092915050565b5f620005c45f1984600802620005a7565b1980831691505092915050565b5f620005de8383620005b3565b9150826002028217905092915050565b620005f982620003b7565b67ffffffffffffffff811115620006155762000614620001d8565b5b620006218254620003ee565b6200062e82828562000557565b5f60209050601f83116001811462000664575f84156200064f578287015190505b6200065b8582620005d1565b865550620006ca565b601f198416620006748662000422565b5f5b828110156200069d5784890151825560018201915060208501945060208101905062000676565b86831015620006bd5784890151620006b9601f891682620005b3565b8355505b6001600288020188555050505b505050505050565b5f73ffffffffffffffffffffffffffffffffffffffff82169050919050565b5f620006fd82620006d2565b9050919050565b6200070f81620006f1565b82525050565b5f6020820190506200072a5f83018462000704565b92915050565b611201806200073e5f395ff3fe608060405234801561000f575f80fd5b50600436106100e8575f3560e01c8063715018a61161008a5780639dc29fac116100645780639dc29fac14610238578063a9059cbb14610254578063dd62ed3e14610284578063f2fde38b146102b4576100e8565b8063715018a6146101f25780638da5cb5b146101fc57806395d89b411461021a576100e8565b806323b872dd116100c657806323b872dd14610158578063313ce5671461018857806340c10f19146101a657806370a08231146101c2576100e8565b806306fdde03146100ec578063095ea7b31461010a57806318160ddd1461013a575b5f80fd5b6100f46102d0565b6040516101019190610e7a565b60405180910390f35b610124600480360381019061011f9190610f2b565b610360565b6040516101319190610f83565b60405180910390f35b610142610382565b60405161014f9190610fab565b60405180910390f35b610172600480360381019061016d9190610fc4565b61038b565b60405161017f9190610f83565b60405180910390f35b6101906103b9565b60405161019d919061102f565b60405180910390f35b6101c060048036038101906101bb9190610f2b565b6103c1565b005b6101dc60048036038101906101d79190611048565b6103d7565b6040516101e99190610fab565b60405180910390f35b6101fa61041c565b005b61020461042f565b6040516102119190611082565b60405180910390f35b610222610457565b60405161022f9190610e7a565b60405180910390f35b610252600480360381019061024d9190610f2b565b6104e7565b005b61026e60048036038101906102699190610f2b565b6104fd565b60405161027b9190610f83565b60405180910390f35b61029e6004803603810190610299919061109b565b61051f565b6040516102ab9190610fab565b60405180910390f35b6102ce60048036038101906102c99190611048565b6105a1565b005b6060600380546102df90611106565b80601f016020809104026020016040519081016040528092919081815260200182805461030b90611106565b80156103565780601f1061032d57610100808354040283529160200191610356565b820191905f5260205f20905b81548152906001019060200180831161033957829003601f168201915b5050505050905090565b5f8061036a610625565b905061037781858561062c565b600191505092915050565b5f600254905090565b5f80610395610625565b90506103a285828561063e565b6103ad8585856106d0565b60019150509392505050565b5f6012905090565b6103c96107c0565b6103d38282610847565b5050565b5f805f8373ffffffffffffffffffffffffffffffffffffffff1673ffffffffffffffffffffffffffffffffffffffff1681526020019081526020015f20549050919050565b6104246107c0565b61042d5f6108c6565b565b5f60055f9054906101000a900473ffffffffffffffffffffffffffffffffffffffff16905090565b60606004805461046690611106565b80601f016020809104026020016040519081016040528092919081815260200182805461049290611106565b80156104dd5780601f106104b4576101008083540402835291602001916104dd565b820191905f5260205f20905b8154815290600101906020018083116104c057829003601f168201915b5050505050905090565b6104ef6107c0565b6104f98282610989565b5050565b5f80610507610625565b90506105148185856106d0565b600191505092915050565b5f60015f8473ffffffffffffffffffffffffffffffffffffffff1673ffffffffffffffffffffffffffffffffffffffff1681526020019081526020015f205f8373ffffffffffffffffffffffffffffffffffffffff1673ffffffffffffffffffffffffffffffffffffffff1681526020019081526020015f2054905092915050565b6105a96107c0565b5f73ffffffffffffffffffffffffffffffffffffffff168173ffffffffffffffffffffffffffffffffffffffff1603610619575f6040517f1e4fbdf70000000000000000000000000000000000000000000000000000000081526004016106109190611082565b60405180910390fd5b610622816108c6565b50565b5f33905090565b6106398383836001610a08565b505050565b5f610649848461051f565b90507fffffffffffffffffffffffffffffffffffffffffffffffffffffffffffffffff81146106ca57818110156106bb578281836040517ffb8f41b20000000000000000000000000000000000000000000000000000000081526004016106b293929190611136565b60405180910390fd5b6106c984848484035f610a08565b5b50505050565b5f73ffffffffffffffffffffffffffffffffffffffff168373ffffffffffffffffffffffffffffffffffffffff1603610740575f6040517f96c6fd1e0000000000000000000000000000000000000000000000000000000081526004016107379190611082565b60405180910390fd5b5f73ffffffffffffffffffffffffffffffffffffffff168273ffffffffffffffffffffffffffffffffffffffff16036107b0575f6040517fec442f050000000000000000000000000000000000000000000000000000000081526004016107a79190611082565b60405180910390fd5b6107bb838383610bd7565b505050565b6107c8610625565b73ffffffffffffffffffffffffffffffffffffffff166107e661042f565b73ffffffffffffffffffffffffffffffffffffffff161461084557610809610625565b6040517f118cdaa700000000000000000000000000000000000000000000000000000000815260040161083c9190611082565b60405180910390fd5b565b5f73ffffffffffffffffffffffffffffffffffffffff168273ffffffffffffffffffffffffffffffffffffffff16036108b7575f6040517fec442f050000000000000000000000000000000000000000000000000000000081526004016108ae9190611082565b60405180910390fd5b6108c25f8383610bd7565b5050565b5f60055f9054906101000a900473ffffffffffffffffffffffffffffffffffffffff1690508160055f6101000a81548173ffffffffffffffffffffffffffffffffffffffff021916908373ffffffffffffffffffffffffffffffffffffffff1602179055508173ffffffffffffffffffffffffffffffffffffffff168173ffffffffffffffffffffffffffffffffffffffff167f8be0079c531659141344cd1fd0a4f28419497f9722a3daafe3b4186f6b6457e060405160405180910390a35050565b5f73ffffffffffffffffffffffffffffffffffffffff168273ffffffffffffffffffffffffffffffffffffffff16036109f9575f6040517f96c6fd1e0000000000000000000000000000000000000000000000000000000081526004016109f09190611082565b60405180910390fd5b610a04825f83610bd7565b5050565b5f73ffffffffffffffffffffffffffffffffffffffff168473ffffffffffffffffffffffffffffffffffffffff1603610a78575f6040517fe602df05000000000000000000000000000000000000000000000000000000008152600401610a6f9190611082565b60405180910390fd5b5f73ffffffffffffffffffffffffffffffffffffffff168373ffffffffffffffffffffffffffffffffffffffff1603610ae8575f6040517f94280d62000000000000000000000000000000000000000000000000000000008152600401610adf9190611082565b60405180910390fd5b8160015f8673ffffffffffffffffffffffffffffffffffffffff1673ffffffffffffffffffffffffffffffffffffffff1681526020019081526020015f205f8573ffffffffffffffffffffffffffffffffffffffff1673ffffffffffffffffffffffffffffffffffffffff1681526020019081526020015f20819055508015610bd1578273ffffffffffffffffffffffffffffffffffffffff168473ffffffffffffffffffffffffffffffffffffffff167f8c5be1e5ebec7d5bd14f71427d1e84f3dd0314c0f7b2291e5b200ac8c7c3b92584604051610bc89190610fab565b60405180910390a35b50505050565b5f73ffffffffffffffffffffffffffffffffffffffff168373ffffffffffffffffffffffffffffffffffffffff1603610c27578060025f828254610c1b9190611198565b92505081905550610cf5565b5f805f8573ffffffffffffffffffffffffffffffffffffffff1673ffffffffffffffffffffffffffffffffffffffff1681526020019081526020015f2054905081811015610cb0578381836040517fe450d38c000000000000000000000000000000000000000000000000000000008152600401610ca793929190611136565b60405180910390fd5b8181035f808673ffffffffffffffffffffffffffffffffffffffff1673ffffffffffffffffffffffffffffffffffffffff1681526020019081526020015f2081905550505b5f73ffffffffffffffffffffffffffffffffffffffff168273ffffffffffffffffffffffffffffffffffffffff1603610d3c578060025f8282540392505081905550610d86565b805f808473ffffffffffffffffffffffffffffffffffffffff1673ffffffffffffffffffffffffffffffffffffffff1681526020019081526020015f205f82825401925050819055505b8173ffffffffffffffffffffffffffffffffffffffff168373ffffffffffffffffffffffffffffffffffffffff167fddf252ad1be2c89b69c2b068fc378daa952ba7f163c4a11628f55a4df523b3ef83604051610de39190610fab565b60405180910390a3505050565b5f81519050919050565b5f82825260208201905092915050565b5f5b83811015610e27578082015181840152602081019050610e0c565b5f8484015250505050565b5f601f19601f8301169050919050565b5f610e4c82610df0565b610e568185610dfa565b9350610e66818560208601610e0a565b610e6f81610e32565b840191505092915050565b5f6020820190508181035f830152610e928184610e42565b905092915050565b5f80fd5b5f73ffffffffffffffffffffffffffffffffffffffff82169050919050565b5f610ec782610e9e565b9050919050565b610ed781610ebd565b8114610ee1575f80fd5b50565b5f81359050610ef281610ece565b92915050565b5f819050919050565b610f0a81610ef8565b8114610f14575f80fd5b50565b5f81359050610f2581610f01565b92915050565b5f8060408385031215610f4157610f40610e9a565b5b5f610f4e85828601610ee4565b9250506020610f5f85828601610f17565b9150509250929050565b5f8115159050919050565b610f7d81610f69565b82525050565b5f602082019050610f965f830184610f74565b92915050565b610fa581610ef8565b82525050565b5f602082019050610fbe5f830184610f9c565b92915050565b5f805f60608486031215610fdb57610fda610e9a565b5b5f610fe886828701610ee4565b9350506020610ff986828701610ee4565b925050604061100a86828701610f17565b9150509250925092565b5f60ff82169050919050565b61102981611014565b82525050565b5f6020820190506110425f830184611020565b92915050565b5f6020828403121561105d5761105c610e9a565b5b5f61106a84828501610ee4565b91505092915050565b61107c81610ebd565b82525050565b5f6020820190506110955f830184611073565b92915050565b5f80604083850312156110b1576110b0610e9a565b5b5f6110be85828601610ee4565b92505060206110cf85828601610ee4565b9150509250929050565b7f4e487b71000000000000000000000000000000000000000000000000000000005f52602260045260245ffd5b5f600282049050600182168061111d57607f821691505b6020821081036111305761112f6110d9565b5b50919050565b5f6060820190506111495f830186611073565b6111566020830185610f9c565b6111636040830184610f9c565b949350505050565b7f4e487b71000000000000000000000000000000000000000000000000000000005f52601160045260245ffd5b5f6111a282610ef8565b91506111ad83610ef8565b92508282019050808211156111c5576111c461116b565b5b9291505056fea264697066735822122025b14832b9d8bf73e0acd353bb04e79180cf14a79806256ac02db01c7e2332bf64736f6c63430008140033",
  "immutableReferences": {},
  "source": "// SPDX-License-Identifier: MIT\npragma solidity ^0.8.0;\n\nimport \"./MyToken.sol\";\nimport \"./LPToken.sol\";\nimport \"../node_modules/@openzeppelin/contracts/token/ERC20/IERC20.sol\";\nimport \"../node_modules/@openzeppelin/contracts/token/ERC20/utils/SafeERC20.sol\";\n\n// fully functional liquidity pool that allows users to add liquidity, remove liquidity, and perform token swaps based on the x*y=k constant product formula\ncontract LiquidityPool {\n    using SafeERC20 for IERC20;\n\n    IERC20 public tokenA;\n    IERC20 public tokenB;\n    LPToken public lpToken;\n\n    uint256 public reserveA;\n    uint256 public reserveB;\n\n    event LiquidityAdded(uint256 amountA, uint256 amountB, uint256 liquidity);\n    event ReservesUpdated(uint256 reserveA, uint256 reserveB);\n\n    constructor(address _tokenA, address _tokenB) {\n        tokenA = IERC20(_tokenA);\n        tokenB = IERC20(_tokenB);\n        lpToken = new LPToken(\"Liquidity Pool Token\", \"LPT\");\n    }\n\n    function balanceOf(address account) public view returns (uint256) {\n        return lpToken.balanceOf(account);\n    }\n\n    // allows users to add liquidity to the pool by depositing an equal value of Token A and Token B\n    function addLiquidity(uint256 amountA, uint256 amountB) external {\n        require(amountA > 0 && amountB > 0, \"Amounts must be greater than zero\");\n\n        uint256 lpTokenSupply = lpToken.totalSupply();\n        uint256 liquidity;\n\n        // calculates amount of LP tokens to mint based on the ratio of provided liquidity to existing liquidity\n        if (lpTokenSupply == 0) {\n            liquidity = sqrt(amountA * amountB);\n        } else {\n            liquidity = min(amountA * lpTokenSupply / reserveA, amountB * lpTokenSupply / reserveB);\n        }\n\n        require(liquidity > 0, \"Insufficient liquidity minted\");\n\n        // update reserves\n        reserveA += amountA;\n        reserveB += amountB;\n\n        // transfer tokens to the pool\n        tokenA.safeTransferFrom(msg.sender, address(this), amountA);\n        tokenB.safeTransferFrom(msg.sender, address(this), amountB);\n\n        // mint LP tokens to the provider\n        lpToken.mint(msg.sender, liquidity);\n\n        emit LiquidityAdded(amountA, amountB, liquidity);\n        emit ReservesUpdated(reserveA, reserveB);\n    }\n\n    // allows users to remove liquidity from the pool by burning LP tokens and receiving their share of the pool's reserves\n    function removeLiquidity(uint256 liquidity) external {\n        require(liquidity > 0, \"Liquidity must be greater than zero\");\n\n        uint256 lpTokenSupply = lpToken.totalSupply();\n\n        uint256 amountA = liquidity * reserveA / lpTokenSupply;\n        uint256 amountB = liquidity * reserveB / lpTokenSupply;\n\n        require(amountA > 0 && amountB > 0, \"Insufficient liquidity burned\");\n\n        reserveA -= amountA;\n        reserveB -= amountB;\n\n        // transfer tokens back to the provider\n        tokenA.safeTransfer(msg.sender, amountA);\n        tokenB.safeTransfer(msg.sender, amountB);\n\n        // burn LP tokens from the provider\n        lpToken.burn(msg.sender, liquidity);\n\n        emit ReservesUpdated(reserveA, reserveB);\n    }\n\n    // allows users to swap one token for another based on the constant product formula\n    function swap(address tokenIn, uint256 amountIn) external {\n        require(amountIn > 0, \"Amount must be greater than zero\");\n\n        bool isTokenA = tokenIn == address(tokenA);\n        bool isTokenB = tokenIn == address(tokenB);\n\n        require(isTokenA || isTokenB, \"Invalid token address\");\n\n        (uint256 reserveIn, uint256 reserveOut, IERC20 tokenOut) = isTokenA\n            ? (reserveA, reserveB, tokenB)\n            : (reserveB, reserveA, tokenA);\n\n        uint256 amountOut = getAmountOut(amountIn, reserveIn, reserveOut);\n\n        require(amountOut > 0, \"Insufficient output amount\");\n\n        // update reserves\n        reserveIn += amountIn;\n        reserveOut -= amountOut;\n\n        if (isTokenA) {\n            reserveA = reserveIn;\n            reserveB = reserveOut;\n        } else {\n            reserveA = reserveOut;\n            reserveB = reserveIn;\n        }\n\n        // transfer tokens\n        IERC20(tokenIn).safeTransferFrom(msg.sender, address(this), amountIn);\n        tokenOut.safeTransfer(msg.sender, amountOut);\n\n        emit ReservesUpdated(reserveA, reserveB);\n    }\n\n    // calculate the amount of Token B received for a specific amount of Token A in a swap (and vice versa)\n    function getAmountOut(uint256 amountIn, uint256 reserveIn, uint256 reserveOut) public pure returns (uint256) {\n        require(amountIn > 0, \"Insufficient input amount\");\n        require(reserveIn > 0 && reserveOut > 0, \"Insufficient liquidity\");\n\n        // takes into account a 0.3% fee\n        uint256 amountInWithFee = amountIn * 997;\n        uint256 numerator = amountInWithFee * reserveOut;\n        uint256 denominator = (reserveIn * 1000) + amountInWithFee;\n\n        return numerator / denominator;\n    }\n\n    // calculate the amount of Token A required to receive a specific amount of Token B in a swap (and vice versa)\n    function getAmountIn(uint256 amountOut, uint256 reserveIn, uint256 reserveOut) public pure returns (uint256) {\n        require(amountOut > 0, \"Insufficient output amount\");\n        require(reserveIn > 0 && reserveOut > 0, \"Insufficient liquidity\");\n\n        uint256 numerator = reserveIn * amountOut * 1000;\n        uint256 denominator = (reserveOut - amountOut) * 997;\n\n        return (numerator / denominator) + 1;\n    }\n\n    // retrieve the current reserves of Token A and Token B\n    function getReserves() external view returns (uint256, uint256) {\n        return (reserveA, reserveB);\n    }\n\n    function sqrt(uint256 y) internal pure returns (uint256 z) {\n        if (y > 3) {\n            z = y;\n            uint256 x = y / 2 + 1;\n            while (x < z) {\n                z = x;\n                x = (y / x + x) / 2;\n            }\n        } else if (y != 0) {\n            z = 1;\n        }\n    }\n\n    function min(uint256 a, uint256 b) internal pure returns (uint256) {\n        return a < b ? a : b;\n    }\n}",
  "sourcePath": "/Users/rohansharma/PersonalProjects/decentralized-exchange/contracts/LiquidityPool.sol",
  "compiler": {
    "name": "solc",
    "version": "0.8.20+commit.a1b79de6.Emscripten.clang"
  },
  "schemaVersion": "3.4.16",
  "updatedAt": "2024-06-09T23:44:05.236Z",
  "networkType": "ethereum",
  "devdoc": {
    "errors": {
      "AddressEmptyCode(address)": [
        {
          "details": "There's no code at `target` (it is not a contract)."
        }
      ],
      "AddressInsufficientBalance(address)": [
        {
          "details": "The ETH balance of the account is not enough to perform the operation."
        }
      ],
      "FailedInnerCall()": [
        {
          "details": "A call to an address target failed. The target may have reverted."
        }
      ],
      "SafeERC20FailedOperation(address)": [
        {
          "details": "An operation with an ERC20 token failed."
        }
      ]
    },
    "kind": "dev",
    "methods": {},
    "version": 1
  },
  "userdoc": {
    "kind": "user",
    "methods": {},
    "version": 1
  }
}